{
  "_format": "hh-sol-artifact-1",
  "contractName": "QuadraticTipping",
  "sourceName": "contracts/QuadraticTipping.sol",
  "abi": [
    {
      "inputs": [
        {
          "internalType": "address",
          "name": "_usdc",
          "type": "address"
        },
        {
          "internalType": "address",
          "name": "_verifier",
          "type": "address"
        }
      ],
      "stateMutability": "nonpayable",
      "type": "constructor"
    },
    {
      "inputs": [
        {
          "internalType": "address",
          "name": "owner",
          "type": "address"
        }
      ],
      "name": "OwnableInvalidOwner",
      "type": "error"
    },
    {
      "inputs": [
        {
          "internalType": "address",
          "name": "account",
          "type": "address"
        }
      ],
      "name": "OwnableUnauthorizedAccount",
      "type": "error"
    },
    {
      "inputs": [],
      "name": "ReentrancyGuardReentrantCall",
      "type": "error"
    },
    {
      "inputs": [
        {
          "internalType": "address",
          "name": "token",
          "type": "address"
        }
      ],
      "name": "SafeERC20FailedOperation",
      "type": "error"
    },
    {
      "anonymous": false,
      "inputs": [
        {
          "indexed": true,
          "internalType": "uint256",
          "name": "roundId",
          "type": "uint256"
        },
        {
          "indexed": true,
          "internalType": "address",
          "name": "creator",
          "type": "address"
        }
      ],
      "name": "CreatorRegistered",
      "type": "event"
    },
    {
      "anonymous": false,
      "inputs": [
        {
          "indexed": true,
          "internalType": "uint256",
          "name": "roundId",
          "type": "uint256"
        },
        {
          "indexed": true,
          "internalType": "address",
          "name": "creator",
          "type": "address"
        },
        {
          "indexed": false,
          "internalType": "uint256",
          "name": "totalTips",
          "type": "uint256"
        },
        {
          "indexed": false,
          "internalType": "uint256",
          "name": "matchingAmount",
          "type": "uint256"
        }
      ],
      "name": "FundsDistributed",
      "type": "event"
    },
    {
      "anonymous": false,
      "inputs": [
        {
          "indexed": true,
          "internalType": "address",
          "name": "previousOwner",
          "type": "address"
        },
        {
          "indexed": true,
          "internalType": "address",
          "name": "newOwner",
          "type": "address"
        }
      ],
      "name": "OwnershipTransferred",
      "type": "event"
    },
    {
      "anonymous": false,
      "inputs": [
        {
          "indexed": true,
          "internalType": "uint256",
          "name": "roundId",
          "type": "uint256"
        },
        {
          "indexed": false,
          "internalType": "uint256",
          "name": "matchingPoolAmount",
          "type": "uint256"
        }
      ],
      "name": "RoundCreated",
      "type": "event"
    },
    {
      "anonymous": false,
      "inputs": [
        {
          "indexed": true,
          "internalType": "uint256",
          "name": "roundId",
          "type": "uint256"
        },
        {
          "indexed": false,
          "internalType": "uint256",
          "name": "totalMatching",
          "type": "uint256"
        },
        {
          "indexed": false,
          "internalType": "uint256",
          "name": "distributedMatching",
          "type": "uint256"
        }
      ],
      "name": "RoundFinalized",
      "type": "event"
    },
    {
      "anonymous": false,
      "inputs": [
        {
          "indexed": true,
          "internalType": "uint256",
          "name": "roundId",
          "type": "uint256"
        },
        {
          "indexed": true,
          "internalType": "address",
          "name": "tipper",
          "type": "address"
        },
        {
          "indexed": true,
          "internalType": "address",
          "name": "creator",
          "type": "address"
        },
        {
          "indexed": false,
          "internalType": "uint256",
          "name": "amount",
          "type": "uint256"
        }
      ],
      "name": "TipSent",
      "type": "event"
    },
    {
      "inputs": [],
      "name": "ROUND_DURATION",
      "outputs": [
        {
          "internalType": "uint256",
          "name": "",
          "type": "uint256"
        }
      ],
      "stateMutability": "view",
      "type": "function"
    },
    {
      "inputs": [
        {
          "internalType": "uint256",
          "name": "_matchingPoolAmount",
          "type": "uint256"
        }
      ],
      "name": "createRound",
      "outputs": [],
      "stateMutability": "nonpayable",
      "type": "function"
    },
    {
      "inputs": [
        {
          "internalType": "uint256",
          "name": "",
          "type": "uint256"
        },
        {
          "internalType": "address",
          "name": "",
          "type": "address"
        }
      ],
      "name": "creatorsInfo",
      "outputs": [
        {
          "internalType": "address",
          "name": "creator",
          "type": "address"
        },
        {
          "internalType": "uint256",
          "name": "totalTips",
          "type": "uint256"
        },
        {
          "internalType": "uint256",
          "name": "tipperCount",
          "type": "uint256"
        },
        {
          "internalType": "uint256",
          "name": "matchingAmount",
          "type": "uint256"
        },
        {
          "internalType": "uint256",
          "name": "sqrtSum",
          "type": "uint256"
        }
      ],
      "stateMutability": "view",
      "type": "function"
    },
    {
      "inputs": [],
      "name": "currentRoundId",
      "outputs": [
        {
          "internalType": "uint256",
          "name": "",
          "type": "uint256"
        }
      ],
      "stateMutability": "view",
      "type": "function"
    },
    {
      "inputs": [
        {
          "internalType": "uint256",
          "name": "_roundId",
          "type": "uint256"
        },
        {
          "internalType": "address",
          "name": "_creator",
          "type": "address"
        }
      ],
      "name": "estimateMatching",
      "outputs": [
        {
          "internalType": "uint256",
          "name": "",
          "type": "uint256"
        }
      ],
      "stateMutability": "view",
      "type": "function"
    },
    {
      "inputs": [
        {
          "internalType": "uint256",
          "name": "_roundId",
          "type": "uint256"
        }
      ],
      "name": "finalizeRound",
      "outputs": [],
      "stateMutability": "nonpayable",
      "type": "function"
    },
    {
      "inputs": [
        {
          "internalType": "uint256",
          "name": "_roundId",
          "type": "uint256"
        },
        {
          "internalType": "uint256",
          "name": "_amount",
          "type": "uint256"
        }
      ],
      "name": "fundMatchingPool",
      "outputs": [],
      "stateMutability": "nonpayable",
      "type": "function"
    },
    {
      "inputs": [],
      "name": "getActiveRound",
      "outputs": [
        {
          "internalType": "uint256",
          "name": "",
          "type": "uint256"
        }
      ],
      "stateMutability": "view",
      "type": "function"
    },
    {
      "inputs": [
        {
          "internalType": "uint256",
          "name": "_roundId",
          "type": "uint256"
        },
        {
          "internalType": "address",
          "name": "_creator",
          "type": "address"
        }
      ],
      "name": "getCreatorInfo",
      "outputs": [
        {
          "components": [
            {
              "internalType": "address",
              "name": "creator",
              "type": "address"
            },
            {
              "internalType": "uint256",
              "name": "totalTips",
              "type": "uint256"
            },
            {
              "internalType": "uint256",
              "name": "tipperCount",
              "type": "uint256"
            },
            {
              "internalType": "uint256",
              "name": "matchingAmount",
              "type": "uint256"
            },
            {
              "internalType": "uint256",
              "name": "sqrtSum",
              "type": "uint256"
            }
          ],
          "internalType": "struct QuadraticTipping.CreatorInfo",
          "name": "",
          "type": "tuple"
        }
      ],
      "stateMutability": "view",
      "type": "function"
    },
    {
      "inputs": [
        {
          "internalType": "uint256",
          "name": "_roundId",
          "type": "uint256"
        },
        {
          "internalType": "address",
          "name": "_creator",
          "type": "address"
        }
      ],
      "name": "getCreatorTips",
      "outputs": [
        {
          "components": [
            {
              "internalType": "address",
              "name": "tipper",
              "type": "address"
            },
            {
              "internalType": "uint256",
              "name": "amount",
              "type": "uint256"
            }
          ],
          "internalType": "struct QuadraticTipping.TipRecord[]",
          "name": "",
          "type": "tuple[]"
        }
      ],
      "stateMutability": "view",
      "type": "function"
    },
    {
      "inputs": [
        {
          "internalType": "uint256",
          "name": "_roundId",
          "type": "uint256"
        }
      ],
      "name": "getRoundInfo",
      "outputs": [
        {
          "components": [
            {
              "internalType": "uint256",
              "name": "id",
              "type": "uint256"
            },
            {
              "internalType": "uint256",
              "name": "startTime",
              "type": "uint256"
            },
            {
              "internalType": "uint256",
              "name": "endTime",
              "type": "uint256"
            },
            {
              "internalType": "uint256",
              "name": "matchingPool",
              "type": "uint256"
            },
            {
              "internalType": "bool",
              "name": "finalized",
              "type": "bool"
            },
            {
              "internalType": "address[]",
              "name": "creators",
              "type": "address[]"
            }
          ],
          "internalType": "struct QuadraticTipping.Round",
          "name": "",
          "type": "tuple"
        }
      ],
      "stateMutability": "view",
      "type": "function"
    },
    {
      "inputs": [
        {
          "internalType": "uint256",
          "name": "",
          "type": "uint256"
        },
        {
          "internalType": "address",
          "name": "",
          "type": "address"
        },
        {
          "internalType": "address",
          "name": "",
          "type": "address"
        }
      ],
      "name": "hasTipped",
      "outputs": [
        {
          "internalType": "bool",
          "name": "",
          "type": "bool"
        }
      ],
      "stateMutability": "view",
      "type": "function"
    },
    {
      "inputs": [
        {
          "internalType": "uint256",
          "name": "",
          "type": "uint256"
        },
        {
          "internalType": "address",
          "name": "",
          "type": "address"
        }
      ],
      "name": "isRegisteredCreator",
      "outputs": [
        {
          "internalType": "bool",
          "name": "",
          "type": "bool"
        }
      ],
      "stateMutability": "view",
      "type": "function"
    },
    {
      "inputs": [
        {
          "internalType": "address",
          "name": "",
          "type": "address"
        }
      ],
      "name": "isVerifiedHuman",
      "outputs": [
        {
          "internalType": "bool",
          "name": "",
          "type": "bool"
        }
      ],
      "stateMutability": "view",
      "type": "function"
    },
    {
      "inputs": [],
      "name": "owner",
      "outputs": [
        {
          "internalType": "address",
          "name": "",
          "type": "address"
        }
      ],
      "stateMutability": "view",
      "type": "function"
    },
    {
      "inputs": [
        {
          "internalType": "uint256",
          "name": "_roundId",
          "type": "uint256"
        }
      ],
      "name": "registerAsCreator",
      "outputs": [],
      "stateMutability": "nonpayable",
      "type": "function"
    },
    {
      "inputs": [],
      "name": "renounceOwnership",
      "outputs": [],
      "stateMutability": "nonpayable",
      "type": "function"
    },
    {
      "inputs": [
        {
          "internalType": "uint256",
          "name": "",
          "type": "uint256"
        },
        {
          "internalType": "address",
          "name": "",
          "type": "address"
        },
        {
          "internalType": "uint256",
          "name": "",
          "type": "uint256"
        }
      ],
      "name": "roundCreatorTips",
      "outputs": [
        {
          "internalType": "address",
          "name": "tipper",
          "type": "address"
        },
        {
          "internalType": "uint256",
          "name": "amount",
          "type": "uint256"
        }
      ],
      "stateMutability": "view",
      "type": "function"
    },
    {
      "inputs": [
        {
          "internalType": "uint256",
          "name": "",
          "type": "uint256"
        }
      ],
      "name": "rounds",
      "outputs": [
        {
          "internalType": "uint256",
          "name": "id",
          "type": "uint256"
        },
        {
          "internalType": "uint256",
          "name": "startTime",
          "type": "uint256"
        },
        {
          "internalType": "uint256",
          "name": "endTime",
          "type": "uint256"
        },
        {
          "internalType": "uint256",
          "name": "matchingPool",
          "type": "uint256"
        },
        {
          "internalType": "bool",
          "name": "finalized",
          "type": "bool"
        }
      ],
      "stateMutability": "view",
      "type": "function"
    },
    {
      "inputs": [
        {
          "internalType": "address",
          "name": "_user",
          "type": "address"
        },
        {
          "internalType": "bool",
          "name": "_verified",
          "type": "bool"
        }
      ],
      "name": "setVerifiedHuman",
      "outputs": [],
      "stateMutability": "nonpayable",
      "type": "function"
    },
    {
      "inputs": [
        {
          "internalType": "address",
          "name": "_verifier",
          "type": "address"
        }
      ],
      "name": "setVerifier",
      "outputs": [],
      "stateMutability": "nonpayable",
      "type": "function"
    },
    {
      "inputs": [
        {
          "internalType": "uint256",
          "name": "_roundId",
          "type": "uint256"
        },
        {
          "internalType": "address",
          "name": "_creator",
          "type": "address"
        },
        {
          "internalType": "uint256",
          "name": "_amount",
          "type": "uint256"
        }
      ],
      "name": "tip",
      "outputs": [],
      "stateMutability": "nonpayable",
      "type": "function"
    },
    {
      "inputs": [
        {
          "internalType": "address",
          "name": "newOwner",
          "type": "address"
        }
      ],
      "name": "transferOwnership",
      "outputs": [],
      "stateMutability": "nonpayable",
      "type": "function"
    },
    {
      "inputs": [],
      "name": "usdc",
      "outputs": [
        {
          "internalType": "contract IERC20",
          "name": "",
          "type": "address"
        }
      ],
      "stateMutability": "view",
      "type": "function"
    },
    {
      "inputs": [],
      "name": "verifier",
      "outputs": [
        {
          "internalType": "address",
          "name": "",
          "type": "address"
        }
      ],
      "stateMutability": "view",
      "type": "function"
    }
  ],
  "bytecode": "0x60a060405234801561001057600080fd5b50604051611d72380380611d7283398101604081905261002f9161016e565b338061005657604051631e4fbdf760e01b8152600060048201526024015b60405180910390fd5b61005f81610102565b5060017f9b779b17422d0df92223018b32b4d1fa46e071723d6817e2486d003becc55f00556001600160a01b0382166100da5760405162461bcd60e51b815260206004820152601560248201527f496e76616c696420746f6b656e20616464726573730000000000000000000000604482015260640161004d565b6001600160a01b03918216608052600180546001600160a01b031916919092161790556101a1565b600080546001600160a01b038381166001600160a01b0319831681178455604051919092169283917f8be0079c531659141344cd1fd0a4f28419497f9722a3daafe3b4186f6b6457e09190a35050565b80516001600160a01b038116811461016957600080fd5b919050565b6000806040838503121561018157600080fd5b61018a83610152565b915061019860208401610152565b90509250929050565b608051611b9a6101d8600039600081816102d30152818161071d01528181610a8101528181610b8d01526112dd0152611b9a6000f3fe608060405234801561001057600080fd5b50600436106101725760003560e01c80636641ea08116100de5780638da5cb5b11610097578063acdacbbf11610071578063acdacbbf1461044b578063d8109bf2146104cd578063f2fde38b146104e0578063fb279ef3146104f357600080fd5b80638da5cb5b146103ff5780638e434624146104105780639cbe5efd1461044257600080fd5b80636641ea081461031b5780636b66cee914610325578063715018a61461035957806388c3ffb01461036157806389063e90146103815780638c65c81f1461039457600080fd5b80633436bfdd116101305780633436bfdd146102935780633469f6e2146102a85780633da1bba1146102bb5780633e413bee146102ce5780634da24edf146102f55780635437988d1461030857600080fd5b806263fa271461017757806306c5b7a0146101af57806311e407c4146101c15780631b1b430c146101ef57806321e06bd4146102485780632b7ac3f314610268575b600080fd5b61019a610185366004611824565b60086020526000908152604090205460ff1681565b60405190151581526020015b60405180910390f35b6002545b6040519081526020016101a6565b61019a6101cf366004611846565b600660209081526000928352604080842090915290825290205460ff1681565b6102026101fd366004611846565b610506565b6040516101a6919081516001600160a01b031681526020808301519082015260408083015190820152606080830151908201526080918201519181019190915260a00190565b61025b610256366004611846565b6105a3565b6040516101a69190611872565b60015461027b906001600160a01b031681565b6040516001600160a01b0390911681526020016101a6565b6102a66102a13660046118ca565b610636565b005b6102a66102b63660046118ec565b61076f565b6102a66102c93660046118ec565b610b72565b61027b7f000000000000000000000000000000000000000000000000000000000000000081565b6102a6610303366004611905565b610c49565b6102a6610316366004611824565b610cbd565b6101b362093a8081565b61019a610333366004611941565b600760209081526000938452604080852082529284528284209052825290205460ff1681565b6102a6610d2f565b61037461036f3660046118ec565b610d43565b6040516101a6919061197d565b6101b361038f366004611846565b610e2d565b6103d56103a23660046118ec565b60036020819052600091825260409091208054600182015460028301549383015460049093015491939092909160ff1685565b6040805195865260208601949094529284019190915260608301521515608082015260a0016101a6565b6000546001600160a01b031661027b565b61042361041e366004611a10565b610ec9565b604080516001600160a01b0390931683526020830191909152016101a6565b6101b360025481565b61049b610459366004611846565b60046020818152600093845260408085209091529183529120805460018201546002830154600384015493909401546001600160a01b03909216939092909185565b604080516001600160a01b0390961686526020860194909452928401919091526060830152608082015260a0016101a6565b6102a66104db3660046118ec565b610f1d565b6102a66104ee366004611824565b6110f9565b6102a6610501366004611a10565b611134565b6105416040518060a0016040528060006001600160a01b03168152602001600081526020016000815260200160008152602001600081525090565b5060008281526004602081815260408084206001600160a01b03808716865290835293819020815160a0810183528154909516855260018101549285019290925260028201549084015260038101546060840152015460808201525b92915050565b60008281526005602090815260408083206001600160a01b03851684528252808320805482518185028101850190935280835260609492939192909184015b8282101561062a576000848152602090819020604080518082019091526002850290910180546001600160a01b031682526001908101548284015290835290920191016105e2565b50505050905092915050565b600082815260036020526040812054900361066c5760405162461bcd60e51b815260040161066390611a46565b60405180910390fd5b60008281526003602052604090206004015460ff16156106c05760405162461bcd60e51b815260206004820152600f60248201526e149bdd5b9908199a5b985b1a5e9959608a1b6044820152606401610663565b600081116107105760405162461bcd60e51b815260206004820152601d60248201527f416d6f756e74206d7573742062652067726561746572207468616e20300000006044820152606401610663565b6107456001600160a01b037f00000000000000000000000000000000000000000000000000000000000000001633308461149d565b60008281526003602081905260408220018054839290610766908490611a8a565b90915550505050565b6107776114d9565b600081815260036020526040812080549091036107a65760405162461bcd60e51b815260040161066390611a46565b806002015442116107ee5760405162461bcd60e51b8152602060048201526012602482015271526f756e64207374696c6c2061637469766560701b6044820152606401610663565b600481015460ff16156108375760405162461bcd60e51b8152602060048201526011602482015270105b1c9958591e48199a5b985b1a5e9959607a1b6044820152606401610663565b60048101805460ff191660011790556005810154600090819067ffffffffffffffff81111561086857610868611a9d565b604051908082528060200260200182016040528015610891578160200160208202803683370190505b50905060005b60058401548110156109915760008460050182815481106108ba576108ba611ab3565b6000918252602080832090910154888352600480835260408085206001600160a01b0390931680865292909352918320918201549093509091906108fe9080611ac9565b9050816001015481111561096557600182015461091b9082611ae0565b85858151811061092d5761092d611ab3565b60200260200101818152505084848151811061094b5761094b611ab3565b60200260200101518661095e9190611a8a565b9550610986565b600085858151811061097957610979611ab3565b6020026020010181815250505b505050600101610897565b50600383015460005b6005850154811015610b095760008560050182815481106109bd576109bd611ab3565b60009182526020808320909101548983526004825260408084206001600160a01b0390921680855291909252908220909250908615610a525784871115610a35578685878681518110610a1257610a12611ab3565b6020026020010151610a249190611ac9565b610a2e9190611b09565b9050610a52565b858481518110610a4757610a47611ab3565b602002602001015190505b600382018190556001820154600090610a6c908390611a8a565b90508015610aa857610aa86001600160a01b037f00000000000000000000000000000000000000000000000000000000000000001685836114f5565b836001600160a01b03168a7fbf69083e799a399c42e9ab19a3fc8b662ec522df69bb2d998588cbcf199c7dfb856001015485604051610af1929190918252602082015260400190565b60405180910390a350506001909201915061099a9050565b50847f50175b23949579f5a257c33ccacf5689f481c882821df6a2a9294c7b5c67fc5584838611610b3a5785610b3c565b835b6040805192835260208301919091520160405180910390a250505050610b6f6001600080516020611b4583398151915255565b50565b610b7a61152a565b8015610bb557610bb56001600160a01b037f00000000000000000000000000000000000000000000000000000000000000001633308461149d565b60028054906000610bc583611b2b565b90915550506002546000818152600360205260409020818155426001909101819055610bf59062093a8090611a8a565b600082815260036020818152604092839020600281019490945592018490555183815282917fe934619c48e1b0b21b662adf6b7c08ad37e6f0d120f40a505503b4fd3bcfec58910160405180910390a25050565b6001546001600160a01b03163314610c925760405162461bcd60e51b815260206004820152600c60248201526b2737ba103b32b934b334b2b960a11b6044820152606401610663565b6001600160a01b03919091166000908152600860205260409020805460ff1916911515919091179055565b610cc561152a565b6001600160a01b038116610d0d5760405162461bcd60e51b815260206004820152600f60248201526e496e76616c6964206164647265737360881b6044820152606401610663565b600180546001600160a01b0319166001600160a01b0392909216919091179055565b610d3761152a565b610d416000611557565b565b610d7e6040518060c0016040528060008152602001600081526020016000815260200160008152602001600015158152602001606081525090565b600082815260036020818152604092839020835160c08101855281548152600182015481840152600282015481860152928101546060840152600481015460ff16151560808401526005810180548551818502810185019096528086529394919360a0860193830182828015610e1d57602002820191906000526020600020905b81546001600160a01b03168152600190910190602001808311610dff575b5050505050815250509050919050565b60008281526004602081815260408084206001600160a01b038087168652908352818520825160a0810184528154909216825260018101549382019390935260028301549181019190915260038201546060820152910154608082018190528290610e989080611ac9565b90508160200151811115610ebe576020820151610eb59082611ae0565b9250505061059d565b506000949350505050565b60056020528260005260406000206020528160005260406000208181548110610ef157600080fd5b6000918252602090912060029091020180546001909101546001600160a01b0390911693509150839050565b6000818152600360205260408120549003610f4a5760405162461bcd60e51b815260040161066390611a46565b60008181526003602052604090206004015460ff1615610f9e5760405162461bcd60e51b815260206004820152600f60248201526e149bdd5b9908199a5b985b1a5e9959608a1b6044820152606401610663565b3360009081526008602052604090205460ff16610ffd5760405162461bcd60e51b815260206004820152601a60248201527f43726561746f72206e6f742076657269666965642068756d616e0000000000006044820152606401610663565b600081815260066020908152604080832033845290915290205460ff161561105c5760405162461bcd60e51b8152602060048201526012602482015271105b1c9958591e481c9959da5cdd195c995960721b6044820152606401610663565b6000818152600360209081526040808320600501805460018082018355918552838520018054336001600160a01b0319918216811790925586865260048552838620828752855283862080549091168217905585855260068452828520818652909352818420805460ff1916909117905551909183917fda369e020ad1fa522fa53476c56182f14b15c2ae2f4779d4aba08468140a9a5a9190a350565b61110161152a565b6001600160a01b03811661112b57604051631e4fbdf760e01b815260006004820152602401610663565b610b6f81611557565b61113c6114d9565b6000838152600360205260409020600101548390421080159061117057506000818152600360205260409020600201544211155b6111af5760405162461bcd60e51b815260206004820152601060248201526f526f756e64206e6f742061637469766560801b6044820152606401610663565b3360009081526008602052604090205460ff1661120e5760405162461bcd60e51b815260206004820152601960248201527f546970706572206e6f742076657269666965642068756d616e000000000000006044820152606401610663565b60008481526006602090815260408083206001600160a01b038716845290915290205460ff166112805760405162461bcd60e51b815260206004820152601f60248201527f43726561746f72206e6f74207265676973746572656420696e20726f756e64006044820152606401610663565b600082116112d05760405162461bcd60e51b815260206004820152601d60248201527f416d6f756e74206d7573742062652067726561746572207468616e20300000006044820152606401610663565b6113056001600160a01b037f00000000000000000000000000000000000000000000000000000000000000001633308561149d565b60008481526004602090815260408083206001600160a01b038716845290915281206001810180549192859261133c908490611a8a565b9091555061134b9050836115a7565b81600401600082825461135e9190611a8a565b909155505060008581526007602090815260408083206001600160a01b0388168452825280832033845290915290205460ff166113e05760008581526007602090815260408083206001600160a01b038816845282528083203384529091528120805460ff19166001179055600282018054916113da83611b2b565b91905055505b60008581526005602090815260408083206001600160a01b0388811680865291845282852083518085018552338082528187018b8152835460018082018655948a52988890209251600290990290920180546001600160a01b0319169890941697909717835551910155905186815290929188917f471bff7634a7f1379732c73e55b97bcd606d0c2e2689abd6e0a729391ef3ba1b910160405180910390a450506114986001600080516020611b4583398151915255565b505050565b6114ab848484846001611700565b6114d357604051635274afe760e01b81526001600160a01b0385166004820152602401610663565b50505050565b6114e1611772565b6002600080516020611b4583398151915255565b61150283838360016117a2565b61149857604051635274afe760e01b81526001600160a01b0384166004820152602401610663565b6000546001600160a01b03163314610d415760405163118cdaa760e01b8152336004820152602401610663565b600080546001600160a01b038381166001600160a01b0319831681178455604051919092169283917f8be0079c531659141344cd1fd0a4f28419497f9722a3daafe3b4186f6b6457e09190a35050565b6000600182116115b5575090565b816001600160801b82106115ce5760809190911c9060401b5b6801000000000000000082106115e95760409190911c9060201b5b64010000000082106116005760209190911c9060101b5b6201000082106116155760109190911c9060081b5b61010082106116295760089190911c9060041b5b6010821061163c5760049190911c9060021b5b600482106116485760011b5b600302600190811c9081858161166057611660611af3565b048201901c9050600181858161167857611678611af3565b048201901c9050600181858161169057611690611af3565b048201901c905060018185816116a8576116a8611af3565b048201901c905060018185816116c0576116c0611af3565b048201901c905060018185816116d8576116d8611af3565b048201901c90506116f78185816116f1576116f1611af3565b04821190565b90039392505050565b6040516323b872dd60e01b60008181526001600160a01b038781166004528616602452604485905291602083606481808c5af192506001600051148316611760578383151615611753573d6000823e3d81fd5b6000883b113d1516831692505b60405250600060605295945050505050565b600080516020611b4583398151915254600203610d4157604051633ee5aeb560e01b815260040160405180910390fd5b60405163a9059cbb60e01b60008181526001600160a01b038616600452602485905291602083604481808b5af1925060016000511483166117fc5783831516156117ef573d6000823e3d81fd5b6000873b113d1516831692505b60405250949350505050565b80356001600160a01b038116811461181f57600080fd5b919050565b60006020828403121561183657600080fd5b61183f82611808565b9392505050565b6000806040838503121561185957600080fd5b8235915061186960208401611808565b90509250929050565b602080825282518282018190526000918401906040840190835b818110156118bf57835180516001600160a01b03168452602090810151818501529093019260409092019160010161188c565b509095945050505050565b600080604083850312156118dd57600080fd5b50508035926020909101359150565b6000602082840312156118fe57600080fd5b5035919050565b6000806040838503121561191857600080fd5b61192183611808565b91506020830135801515811461193657600080fd5b809150509250929050565b60008060006060848603121561195657600080fd5b8335925061196660208501611808565b915061197460408501611808565b90509250925092565b60208152600060e08201835160208401526020840151604084015260408401516060840152606084015160808401526080840151151560a084015260a084015160c08085015281815180845261010086019150602083019350600092505b80831015611a065783516001600160a01b0316825260209384019360019390930192909101906119db565b5095945050505050565b600080600060608486031215611a2557600080fd5b83359250611a3560208501611808565b929592945050506040919091013590565b602080825260149082015273149bdd5b9908191bd95cc81b9bdd08195e1a5cdd60621b604082015260600190565b634e487b7160e01b600052601160045260246000fd5b8082018082111561059d5761059d611a74565b634e487b7160e01b600052604160045260246000fd5b634e487b7160e01b600052603260045260246000fd5b808202811582820484141761059d5761059d611a74565b8181038181111561059d5761059d611a74565b634e487b7160e01b600052601260045260246000fd5b600082611b2657634e487b7160e01b600052601260045260246000fd5b500490565b600060018201611b3d57611b3d611a74565b506001019056fe9b779b17422d0df92223018b32b4d1fa46e071723d6817e2486d003becc55f00a264697066735822122020d04e29d2873792dce47fd2310aa09296ba2ed81a23bcdf3099fba47ba94f8f64736f6c634300081c0033",
  "linkReferences": {},
  "deployedLinkReferences": {}
}