{
  "_format": "hh-sol-artifact-1",
  "contractName": "QuadraticTipping",
  "sourceName": "contracts/QuadraticTipping.sol",
  "abi": [
    {
      "inputs": [
        {
          "internalType": "address",
          "name": "_usdc",
          "type": "address"
        },
        {
          "internalType": "address",
          "name": "_verifier",
          "type": "address"
        }
      ],
      "stateMutability": "nonpayable",
      "type": "constructor"
    },
    {
      "inputs": [
        {
          "internalType": "address",
          "name": "owner",
          "type": "address"
        }
      ],
      "name": "OwnableInvalidOwner",
      "type": "error"
    },
    {
      "inputs": [
        {
          "internalType": "address",
          "name": "account",
          "type": "address"
        }
      ],
      "name": "OwnableUnauthorizedAccount",
      "type": "error"
    },
    {
      "inputs": [],
      "name": "ReentrancyGuardReentrantCall",
      "type": "error"
    },
    {
      "inputs": [
        {
          "internalType": "address",
          "name": "token",
          "type": "address"
        }
      ],
      "name": "SafeERC20FailedOperation",
      "type": "error"
    },
    {
      "anonymous": false,
      "inputs": [
        {
          "indexed": true,
          "internalType": "uint256",
          "name": "roundId",
          "type": "uint256"
        },
        {
          "indexed": true,
          "internalType": "address",
          "name": "creator",
          "type": "address"
        }
      ],
      "name": "CreatorRegistered",
      "type": "event"
    },
    {
      "anonymous": false,
      "inputs": [
        {
          "indexed": true,
          "internalType": "uint256",
          "name": "roundId",
          "type": "uint256"
        },
        {
          "indexed": true,
          "internalType": "address",
          "name": "creator",
          "type": "address"
        },
        {
          "indexed": false,
          "internalType": "uint256",
          "name": "totalTips",
          "type": "uint256"
        },
        {
          "indexed": false,
          "internalType": "uint256",
          "name": "matchingAmount",
          "type": "uint256"
        }
      ],
      "name": "FundsDistributed",
      "type": "event"
    },
    {
      "anonymous": false,
      "inputs": [
        {
          "indexed": true,
          "internalType": "address",
          "name": "previousOwner",
          "type": "address"
        },
        {
          "indexed": true,
          "internalType": "address",
          "name": "newOwner",
          "type": "address"
        }
      ],
      "name": "OwnershipTransferred",
      "type": "event"
    },
    {
      "anonymous": false,
      "inputs": [
        {
          "indexed": true,
          "internalType": "uint256",
          "name": "roundId",
          "type": "uint256"
        },
        {
          "indexed": false,
          "internalType": "uint256",
          "name": "matchingPoolAmount",
          "type": "uint256"
        },
        {
          "indexed": false,
          "internalType": "uint256",
          "name": "durationInSeconds",
          "type": "uint256"
        }
      ],
      "name": "RoundCreated",
      "type": "event"
    },
    {
      "anonymous": false,
      "inputs": [
        {
          "indexed": true,
          "internalType": "uint256",
          "name": "roundId",
          "type": "uint256"
        },
        {
          "indexed": false,
          "internalType": "uint256",
          "name": "totalMatching",
          "type": "uint256"
        },
        {
          "indexed": false,
          "internalType": "uint256",
          "name": "distributedMatching",
          "type": "uint256"
        }
      ],
      "name": "RoundFinalized",
      "type": "event"
    },
    {
      "anonymous": false,
      "inputs": [
        {
          "indexed": true,
          "internalType": "uint256",
          "name": "roundId",
          "type": "uint256"
        },
        {
          "indexed": true,
          "internalType": "address",
          "name": "tipper",
          "type": "address"
        },
        {
          "indexed": true,
          "internalType": "address",
          "name": "creator",
          "type": "address"
        },
        {
          "indexed": false,
          "internalType": "uint256",
          "name": "amount",
          "type": "uint256"
        }
      ],
      "name": "TipSent",
      "type": "event"
    },
    {
      "inputs": [
        {
          "internalType": "uint256",
          "name": "_matchingPoolAmount",
          "type": "uint256"
        },
        {
          "internalType": "uint256",
          "name": "_durationInSeconds",
          "type": "uint256"
        }
      ],
      "name": "createRound",
      "outputs": [],
      "stateMutability": "nonpayable",
      "type": "function"
    },
    {
      "inputs": [
        {
          "internalType": "uint256",
          "name": "",
          "type": "uint256"
        },
        {
          "internalType": "address",
          "name": "",
          "type": "address"
        }
      ],
      "name": "creatorsInfo",
      "outputs": [
        {
          "internalType": "address",
          "name": "creator",
          "type": "address"
        },
        {
          "internalType": "uint256",
          "name": "totalTips",
          "type": "uint256"
        },
        {
          "internalType": "uint256",
          "name": "tipperCount",
          "type": "uint256"
        },
        {
          "internalType": "uint256",
          "name": "matchingAmount",
          "type": "uint256"
        },
        {
          "internalType": "uint256",
          "name": "sqrtSum",
          "type": "uint256"
        }
      ],
      "stateMutability": "view",
      "type": "function"
    },
    {
      "inputs": [],
      "name": "currentRoundId",
      "outputs": [
        {
          "internalType": "uint256",
          "name": "",
          "type": "uint256"
        }
      ],
      "stateMutability": "view",
      "type": "function"
    },
    {
      "inputs": [
        {
          "internalType": "uint256",
          "name": "_roundId",
          "type": "uint256"
        },
        {
          "internalType": "address",
          "name": "_creator",
          "type": "address"
        }
      ],
      "name": "estimateMatching",
      "outputs": [
        {
          "internalType": "uint256",
          "name": "",
          "type": "uint256"
        }
      ],
      "stateMutability": "view",
      "type": "function"
    },
    {
      "inputs": [
        {
          "internalType": "uint256",
          "name": "_roundId",
          "type": "uint256"
        }
      ],
      "name": "finalizeRound",
      "outputs": [],
      "stateMutability": "nonpayable",
      "type": "function"
    },
    {
      "inputs": [
        {
          "internalType": "uint256",
          "name": "_roundId",
          "type": "uint256"
        },
        {
          "internalType": "uint256",
          "name": "_amount",
          "type": "uint256"
        }
      ],
      "name": "fundMatchingPool",
      "outputs": [],
      "stateMutability": "nonpayable",
      "type": "function"
    },
    {
      "inputs": [],
      "name": "getActiveRound",
      "outputs": [
        {
          "internalType": "uint256",
          "name": "",
          "type": "uint256"
        }
      ],
      "stateMutability": "view",
      "type": "function"
    },
    {
      "inputs": [
        {
          "internalType": "uint256",
          "name": "_roundId",
          "type": "uint256"
        },
        {
          "internalType": "address",
          "name": "_creator",
          "type": "address"
        }
      ],
      "name": "getCreatorInfo",
      "outputs": [
        {
          "components": [
            {
              "internalType": "address",
              "name": "creator",
              "type": "address"
            },
            {
              "internalType": "uint256",
              "name": "totalTips",
              "type": "uint256"
            },
            {
              "internalType": "uint256",
              "name": "tipperCount",
              "type": "uint256"
            },
            {
              "internalType": "uint256",
              "name": "matchingAmount",
              "type": "uint256"
            },
            {
              "internalType": "uint256",
              "name": "sqrtSum",
              "type": "uint256"
            }
          ],
          "internalType": "struct QuadraticTipping.CreatorInfo",
          "name": "",
          "type": "tuple"
        }
      ],
      "stateMutability": "view",
      "type": "function"
    },
    {
      "inputs": [
        {
          "internalType": "uint256",
          "name": "_roundId",
          "type": "uint256"
        },
        {
          "internalType": "address",
          "name": "_creator",
          "type": "address"
        }
      ],
      "name": "getCreatorTips",
      "outputs": [
        {
          "components": [
            {
              "internalType": "address",
              "name": "tipper",
              "type": "address"
            },
            {
              "internalType": "uint256",
              "name": "amount",
              "type": "uint256"
            }
          ],
          "internalType": "struct QuadraticTipping.TipRecord[]",
          "name": "",
          "type": "tuple[]"
        }
      ],
      "stateMutability": "view",
      "type": "function"
    },
    {
      "inputs": [
        {
          "internalType": "uint256",
          "name": "_roundId",
          "type": "uint256"
        }
      ],
      "name": "getRoundInfo",
      "outputs": [
        {
          "components": [
            {
              "internalType": "uint256",
              "name": "id",
              "type": "uint256"
            },
            {
              "internalType": "uint256",
              "name": "startTime",
              "type": "uint256"
            },
            {
              "internalType": "uint256",
              "name": "endTime",
              "type": "uint256"
            },
            {
              "internalType": "uint256",
              "name": "matchingPool",
              "type": "uint256"
            },
            {
              "internalType": "bool",
              "name": "finalized",
              "type": "bool"
            },
            {
              "internalType": "address[]",
              "name": "creators",
              "type": "address[]"
            }
          ],
          "internalType": "struct QuadraticTipping.Round",
          "name": "",
          "type": "tuple"
        }
      ],
      "stateMutability": "view",
      "type": "function"
    },
    {
      "inputs": [
        {
          "internalType": "uint256",
          "name": "",
          "type": "uint256"
        },
        {
          "internalType": "address",
          "name": "",
          "type": "address"
        },
        {
          "internalType": "address",
          "name": "",
          "type": "address"
        }
      ],
      "name": "hasTipped",
      "outputs": [
        {
          "internalType": "bool",
          "name": "",
          "type": "bool"
        }
      ],
      "stateMutability": "view",
      "type": "function"
    },
    {
      "inputs": [
        {
          "internalType": "uint256",
          "name": "",
          "type": "uint256"
        },
        {
          "internalType": "address",
          "name": "",
          "type": "address"
        }
      ],
      "name": "isRegisteredCreator",
      "outputs": [
        {
          "internalType": "bool",
          "name": "",
          "type": "bool"
        }
      ],
      "stateMutability": "view",
      "type": "function"
    },
    {
      "inputs": [
        {
          "internalType": "address",
          "name": "",
          "type": "address"
        }
      ],
      "name": "isVerifiedHuman",
      "outputs": [
        {
          "internalType": "bool",
          "name": "",
          "type": "bool"
        }
      ],
      "stateMutability": "view",
      "type": "function"
    },
    {
      "inputs": [],
      "name": "owner",
      "outputs": [
        {
          "internalType": "address",
          "name": "",
          "type": "address"
        }
      ],
      "stateMutability": "view",
      "type": "function"
    },
    {
      "inputs": [
        {
          "internalType": "uint256",
          "name": "_roundId",
          "type": "uint256"
        }
      ],
      "name": "registerAsCreator",
      "outputs": [],
      "stateMutability": "nonpayable",
      "type": "function"
    },
    {
      "inputs": [],
      "name": "renounceOwnership",
      "outputs": [],
      "stateMutability": "nonpayable",
      "type": "function"
    },
    {
      "inputs": [
        {
          "internalType": "uint256",
          "name": "",
          "type": "uint256"
        },
        {
          "internalType": "address",
          "name": "",
          "type": "address"
        },
        {
          "internalType": "uint256",
          "name": "",
          "type": "uint256"
        }
      ],
      "name": "roundCreatorTips",
      "outputs": [
        {
          "internalType": "address",
          "name": "tipper",
          "type": "address"
        },
        {
          "internalType": "uint256",
          "name": "amount",
          "type": "uint256"
        }
      ],
      "stateMutability": "view",
      "type": "function"
    },
    {
      "inputs": [
        {
          "internalType": "uint256",
          "name": "",
          "type": "uint256"
        }
      ],
      "name": "rounds",
      "outputs": [
        {
          "internalType": "uint256",
          "name": "id",
          "type": "uint256"
        },
        {
          "internalType": "uint256",
          "name": "startTime",
          "type": "uint256"
        },
        {
          "internalType": "uint256",
          "name": "endTime",
          "type": "uint256"
        },
        {
          "internalType": "uint256",
          "name": "matchingPool",
          "type": "uint256"
        },
        {
          "internalType": "bool",
          "name": "finalized",
          "type": "bool"
        }
      ],
      "stateMutability": "view",
      "type": "function"
    },
    {
      "inputs": [
        {
          "internalType": "address",
          "name": "_user",
          "type": "address"
        },
        {
          "internalType": "bool",
          "name": "_verified",
          "type": "bool"
        }
      ],
      "name": "setVerifiedHuman",
      "outputs": [],
      "stateMutability": "nonpayable",
      "type": "function"
    },
    {
      "inputs": [
        {
          "internalType": "address",
          "name": "_verifier",
          "type": "address"
        }
      ],
      "name": "setVerifier",
      "outputs": [],
      "stateMutability": "nonpayable",
      "type": "function"
    },
    {
      "inputs": [
        {
          "internalType": "uint256",
          "name": "_roundId",
          "type": "uint256"
        },
        {
          "internalType": "address",
          "name": "_creator",
          "type": "address"
        },
        {
          "internalType": "uint256",
          "name": "_amount",
          "type": "uint256"
        }
      ],
      "name": "tip",
      "outputs": [],
      "stateMutability": "nonpayable",
      "type": "function"
    },
    {
      "inputs": [
        {
          "internalType": "address",
          "name": "newOwner",
          "type": "address"
        }
      ],
      "name": "transferOwnership",
      "outputs": [],
      "stateMutability": "nonpayable",
      "type": "function"
    },
    {
      "inputs": [],
      "name": "usdc",
      "outputs": [
        {
          "internalType": "contract IERC20",
          "name": "",
          "type": "address"
        }
      ],
      "stateMutability": "view",
      "type": "function"
    },
    {
      "inputs": [],
      "name": "verifier",
      "outputs": [
        {
          "internalType": "address",
          "name": "",
          "type": "address"
        }
      ],
      "stateMutability": "view",
      "type": "function"
    }
  ],
  "bytecode": "0x60a060405234801561001057600080fd5b50604051611d99380380611d9983398101604081905261002f9161016e565b338061005657604051631e4fbdf760e01b8152600060048201526024015b60405180910390fd5b61005f81610102565b5060017f9b779b17422d0df92223018b32b4d1fa46e071723d6817e2486d003becc55f00556001600160a01b0382166100da5760405162461bcd60e51b815260206004820152601560248201527f496e76616c696420746f6b656e20616464726573730000000000000000000000604482015260640161004d565b6001600160a01b03918216608052600180546001600160a01b031916919092161790556101a1565b600080546001600160a01b038381166001600160a01b0319831681178455604051919092169283917f8be0079c531659141344cd1fd0a4f28419497f9722a3daafe3b4186f6b6457e09190a35050565b80516001600160a01b038116811461016957600080fd5b919050565b6000806040838503121561018157600080fd5b61018a83610152565b915061019860208401610152565b90509250929050565b608051611bc16101d8600039600081816102a5015281816106f801528181610a5c01528181610ca901526113040152611bc16000f3fe608060405234801561001057600080fd5b50600436106101575760003560e01c8063715018a6116100c35780638e4346241161007c5780638e434624146103eb5780639cbe5efd1461041d578063acdacbbf14610426578063d8109bf2146104a8578063f2fde38b146104bb578063fb279ef3146104ce57600080fd5b8063715018a614610321578063848ee75f1461032957806388c3ffb01461033c57806389063e901461035c5780638c65c81f1461036f5780638da5cb5b146103da57600080fd5b80633436bfdd116101155780633436bfdd146102785780633469f6e21461028d5780633e413bee146102a05780634da24edf146102c75780635437988d146102da5780636b66cee9146102ed57600080fd5b806263fa271461015c57806306c5b7a01461019457806311e407c4146101a65780631b1b430c146101d457806321e06bd41461022d5780632b7ac3f31461024d575b600080fd5b61017f61016a36600461184b565b60086020526000908152604090205460ff1681565b60405190151581526020015b60405180910390f35b6002545b60405190815260200161018b565b61017f6101b436600461186d565b600660209081526000928352604080842090915290825290205460ff1681565b6101e76101e236600461186d565b6104e1565b60405161018b919081516001600160a01b031681526020808301519082015260408083015190820152606080830151908201526080918201519181019190915260a00190565b61024061023b36600461186d565b61057e565b60405161018b9190611899565b600154610260906001600160a01b031681565b6040516001600160a01b03909116815260200161018b565b61028b6102863660046118f1565b610611565b005b61028b61029b366004611913565b61074a565b6102607f000000000000000000000000000000000000000000000000000000000000000081565b61028b6102d536600461192c565b610b4d565b61028b6102e836600461184b565b610bc1565b61017f6102fb366004611968565b600760209081526000938452604080852082529284528284209052825290205460ff1681565b61028b610c33565b61028b6103373660046118f1565b610c47565b61034f61034a366004611913565b610d6a565b60405161018b91906119a4565b61019861036a36600461186d565b610e54565b6103b061037d366004611913565b60036020819052600091825260409091208054600182015460028301549383015460049093015491939092909160ff1685565b6040805195865260208601949094529284019190915260608301521515608082015260a00161018b565b6000546001600160a01b0316610260565b6103fe6103f9366004611a37565b610ef0565b604080516001600160a01b03909316835260208301919091520161018b565b61019860025481565b61047661043436600461186d565b60046020818152600093845260408085209091529183529120805460018201546002830154600384015493909401546001600160a01b03909216939092909185565b604080516001600160a01b0390961686526020860194909452928401919091526060830152608082015260a00161018b565b61028b6104b6366004611913565b610f44565b61028b6104c936600461184b565b611120565b61028b6104dc366004611a37565b61115b565b61051c6040518060a0016040528060006001600160a01b03168152602001600081526020016000815260200160008152602001600081525090565b5060008281526004602081815260408084206001600160a01b03808716865290835293819020815160a0810183528154909516855260018101549285019290925260028201549084015260038101546060840152015460808201525b92915050565b60008281526005602090815260408083206001600160a01b03851684528252808320805482518185028101850190935280835260609492939192909184015b82821015610605576000848152602090819020604080518082019091526002850290910180546001600160a01b031682526001908101548284015290835290920191016105bd565b50505050905092915050565b60008281526003602052604081205490036106475760405162461bcd60e51b815260040161063e90611a6d565b60405180910390fd5b60008281526003602052604090206004015460ff161561069b5760405162461bcd60e51b815260206004820152600f60248201526e149bdd5b9908199a5b985b1a5e9959608a1b604482015260640161063e565b600081116106eb5760405162461bcd60e51b815260206004820152601d60248201527f416d6f756e74206d7573742062652067726561746572207468616e2030000000604482015260640161063e565b6107206001600160a01b037f0000000000000000000000000000000000000000000000000000000000000000163330846114c4565b60008281526003602081905260408220018054839290610741908490611ab1565b90915550505050565b610752611500565b600081815260036020526040812080549091036107815760405162461bcd60e51b815260040161063e90611a6d565b806002015442116107c95760405162461bcd60e51b8152602060048201526012602482015271526f756e64207374696c6c2061637469766560701b604482015260640161063e565b600481015460ff16156108125760405162461bcd60e51b8152602060048201526011602482015270105b1c9958591e48199a5b985b1a5e9959607a1b604482015260640161063e565b60048101805460ff191660011790556005810154600090819067ffffffffffffffff81111561084357610843611ac4565b60405190808252806020026020018201604052801561086c578160200160208202803683370190505b50905060005b600584015481101561096c57600084600501828154811061089557610895611ada565b6000918252602080832090910154888352600480835260408085206001600160a01b0390931680865292909352918320918201549093509091906108d99080611af0565b905081600101548111156109405760018201546108f69082611b07565b85858151811061090857610908611ada565b60200260200101818152505084848151811061092657610926611ada565b6020026020010151866109399190611ab1565b9550610961565b600085858151811061095457610954611ada565b6020026020010181815250505b505050600101610872565b50600383015460005b6005850154811015610ae457600085600501828154811061099857610998611ada565b60009182526020808320909101548983526004825260408084206001600160a01b0390921680855291909252908220909250908615610a2d5784871115610a105786858786815181106109ed576109ed611ada565b60200260200101516109ff9190611af0565b610a099190611b30565b9050610a2d565b858481518110610a2257610a22611ada565b602002602001015190505b600382018190556001820154600090610a47908390611ab1565b90508015610a8357610a836001600160a01b037f000000000000000000000000000000000000000000000000000000000000000016858361151c565b836001600160a01b03168a7fbf69083e799a399c42e9ab19a3fc8b662ec522df69bb2d998588cbcf199c7dfb856001015485604051610acc929190918252602082015260400190565b60405180910390a35050600190920191506109759050565b50847f50175b23949579f5a257c33ccacf5689f481c882821df6a2a9294c7b5c67fc5584838611610b155785610b17565b835b6040805192835260208301919091520160405180910390a250505050610b4a6001600080516020611b6c83398151915255565b50565b6001546001600160a01b03163314610b965760405162461bcd60e51b815260206004820152600c60248201526b2737ba103b32b934b334b2b960a11b604482015260640161063e565b6001600160a01b03919091166000908152600860205260409020805460ff1916911515919091179055565b610bc9611551565b6001600160a01b038116610c115760405162461bcd60e51b815260206004820152600f60248201526e496e76616c6964206164647265737360881b604482015260640161063e565b600180546001600160a01b0319166001600160a01b0392909216919091179055565b610c3b611551565b610c45600061157e565b565b610c4f611551565b60008111610c965760405162461bcd60e51b815260206004820152601460248201527304475726174696f6e206d757374206265203e20360641b604482015260640161063e565b8115610cd157610cd16001600160a01b037f0000000000000000000000000000000000000000000000000000000000000000163330856114c4565b60028054906000610ce183611b52565b90915550506002546000818152600360205260409020818155426001909101819055610d0e908390611ab1565b60008281526003602081815260409283902060028101949094559201859055805185815291820184905282917f68e7b09ec44e876e76ff05157850e3261aa63a8680fe21a2ba93dcbb2b09f58f910160405180910390a2505050565b610da56040518060c0016040528060008152602001600081526020016000815260200160008152602001600015158152602001606081525090565b600082815260036020818152604092839020835160c08101855281548152600182015481840152600282015481860152928101546060840152600481015460ff16151560808401526005810180548551818502810185019096528086529394919360a0860193830182828015610e4457602002820191906000526020600020905b81546001600160a01b03168152600190910190602001808311610e26575b5050505050815250509050919050565b60008281526004602081815260408084206001600160a01b038087168652908352818520825160a0810184528154909216825260018101549382019390935260028301549181019190915260038201546060820152910154608082018190528290610ebf9080611af0565b90508160200151811115610ee5576020820151610edc9082611b07565b92505050610578565b506000949350505050565b60056020528260005260406000206020528160005260406000208181548110610f1857600080fd5b6000918252602090912060029091020180546001909101546001600160a01b0390911693509150839050565b6000818152600360205260408120549003610f715760405162461bcd60e51b815260040161063e90611a6d565b60008181526003602052604090206004015460ff1615610fc55760405162461bcd60e51b815260206004820152600f60248201526e149bdd5b9908199a5b985b1a5e9959608a1b604482015260640161063e565b3360009081526008602052604090205460ff166110245760405162461bcd60e51b815260206004820152601a60248201527f43726561746f72206e6f742076657269666965642068756d616e000000000000604482015260640161063e565b600081815260066020908152604080832033845290915290205460ff16156110835760405162461bcd60e51b8152602060048201526012602482015271105b1c9958591e481c9959da5cdd195c995960721b604482015260640161063e565b6000818152600360209081526040808320600501805460018082018355918552838520018054336001600160a01b0319918216811790925586865260048552838620828752855283862080549091168217905585855260068452828520818652909352818420805460ff1916909117905551909183917fda369e020ad1fa522fa53476c56182f14b15c2ae2f4779d4aba08468140a9a5a9190a350565b611128611551565b6001600160a01b03811661115257604051631e4fbdf760e01b81526000600482015260240161063e565b610b4a8161157e565b611163611500565b6000838152600360205260409020600101548390421080159061119757506000818152600360205260409020600201544211155b6111d65760405162461bcd60e51b815260206004820152601060248201526f526f756e64206e6f742061637469766560801b604482015260640161063e565b3360009081526008602052604090205460ff166112355760405162461bcd60e51b815260206004820152601960248201527f546970706572206e6f742076657269666965642068756d616e00000000000000604482015260640161063e565b60008481526006602090815260408083206001600160a01b038716845290915290205460ff166112a75760405162461bcd60e51b815260206004820152601f60248201527f43726561746f72206e6f74207265676973746572656420696e20726f756e6400604482015260640161063e565b600082116112f75760405162461bcd60e51b815260206004820152601d60248201527f416d6f756e74206d7573742062652067726561746572207468616e2030000000604482015260640161063e565b61132c6001600160a01b037f0000000000000000000000000000000000000000000000000000000000000000163330856114c4565b60008481526004602090815260408083206001600160a01b0387168452909152812060018101805491928592611363908490611ab1565b909155506113729050836115ce565b8160040160008282546113859190611ab1565b909155505060008581526007602090815260408083206001600160a01b0388168452825280832033845290915290205460ff166114075760008581526007602090815260408083206001600160a01b038816845282528083203384529091528120805460ff191660011790556002820180549161140183611b52565b91905055505b60008581526005602090815260408083206001600160a01b0388811680865291845282852083518085018552338082528187018b8152835460018082018655948a52988890209251600290990290920180546001600160a01b0319169890941697909717835551910155905186815290929188917f471bff7634a7f1379732c73e55b97bcd606d0c2e2689abd6e0a729391ef3ba1b910160405180910390a450506114bf6001600080516020611b6c83398151915255565b505050565b6114d2848484846001611727565b6114fa57604051635274afe760e01b81526001600160a01b038516600482015260240161063e565b50505050565b611508611799565b6002600080516020611b6c83398151915255565b61152983838360016117c9565b6114bf57604051635274afe760e01b81526001600160a01b038416600482015260240161063e565b6000546001600160a01b03163314610c455760405163118cdaa760e01b815233600482015260240161063e565b600080546001600160a01b038381166001600160a01b0319831681178455604051919092169283917f8be0079c531659141344cd1fd0a4f28419497f9722a3daafe3b4186f6b6457e09190a35050565b6000600182116115dc575090565b816001600160801b82106115f55760809190911c9060401b5b6801000000000000000082106116105760409190911c9060201b5b64010000000082106116275760209190911c9060101b5b62010000821061163c5760109190911c9060081b5b61010082106116505760089190911c9060041b5b601082106116635760049190911c9060021b5b6004821061166f5760011b5b600302600190811c9081858161168757611687611b1a565b048201901c9050600181858161169f5761169f611b1a565b048201901c905060018185816116b7576116b7611b1a565b048201901c905060018185816116cf576116cf611b1a565b048201901c905060018185816116e7576116e7611b1a565b048201901c905060018185816116ff576116ff611b1a565b048201901c905061171e81858161171857611718611b1a565b04821190565b90039392505050565b6040516323b872dd60e01b60008181526001600160a01b038781166004528616602452604485905291602083606481808c5af19250600160005114831661178757838315161561177a573d6000823e3d81fd5b6000883b113d1516831692505b60405250600060605295945050505050565b600080516020611b6c83398151915254600203610c4557604051633ee5aeb560e01b815260040160405180910390fd5b60405163a9059cbb60e01b60008181526001600160a01b038616600452602485905291602083604481808b5af192506001600051148316611823578383151615611816573d6000823e3d81fd5b6000873b113d1516831692505b60405250949350505050565b80356001600160a01b038116811461184657600080fd5b919050565b60006020828403121561185d57600080fd5b6118668261182f565b9392505050565b6000806040838503121561188057600080fd5b823591506118906020840161182f565b90509250929050565b602080825282518282018190526000918401906040840190835b818110156118e657835180516001600160a01b0316845260209081015181850152909301926040909201916001016118b3565b509095945050505050565b6000806040838503121561190457600080fd5b50508035926020909101359150565b60006020828403121561192557600080fd5b5035919050565b6000806040838503121561193f57600080fd5b6119488361182f565b91506020830135801515811461195d57600080fd5b809150509250929050565b60008060006060848603121561197d57600080fd5b8335925061198d6020850161182f565b915061199b6040850161182f565b90509250925092565b60208152600060e08201835160208401526020840151604084015260408401516060840152606084015160808401526080840151151560a084015260a084015160c08085015281815180845261010086019150602083019350600092505b80831015611a2d5783516001600160a01b031682526020938401936001939093019290910190611a02565b5095945050505050565b600080600060608486031215611a4c57600080fd5b83359250611a5c6020850161182f565b929592945050506040919091013590565b602080825260149082015273149bdd5b9908191bd95cc81b9bdd08195e1a5cdd60621b604082015260600190565b634e487b7160e01b600052601160045260246000fd5b8082018082111561057857610578611a9b565b634e487b7160e01b600052604160045260246000fd5b634e487b7160e01b600052603260045260246000fd5b808202811582820484141761057857610578611a9b565b8181038181111561057857610578611a9b565b634e487b7160e01b600052601260045260246000fd5b600082611b4d57634e487b7160e01b600052601260045260246000fd5b500490565b600060018201611b6457611b64611a9b565b506001019056fe9b779b17422d0df92223018b32b4d1fa46e071723d6817e2486d003becc55f00a2646970667358221220613652cf7e88fb087cb1b18b81b9954639217f8f8e752d2df16934de7587810164736f6c634300081c0033",
  "linkReferences": {},
  "deployedLinkReferences": {}
}